{
  "contractName": "DIR_contract",
  "abi": [
    {
      "constant": false,
      "inputs": [
        {
          "name": "_report_status",
          "type": "uint256"
        }
      ],
      "name": "setStatus",
      "outputs": [],
      "payable": false,
      "stateMutability": "nonpayable",
      "type": "function"
    },
    {
      "constant": false,
      "inputs": [
        {
          "name": "_name",
          "type": "string"
        },
        {
          "name": "_report_type",
          "type": "string"
        },
        {
          "name": "_desc",
          "type": "string"
        }
      ],
      "name": "createReport",
      "outputs": [],
      "payable": false,
      "stateMutability": "nonpayable",
      "type": "function"
    },
    {
      "constant": true,
      "inputs": [],
      "name": "getReport",
      "outputs": [
        {
          "name": "_reporter",
          "type": "address"
        },
        {
          "name": "_name",
          "type": "string"
        },
        {
          "name": "_report_type",
          "type": "string"
        },
        {
          "name": "_desc",
          "type": "string"
        },
        {
          "name": "_report_status",
          "type": "uint256"
        }
      ],
      "payable": false,
      "stateMutability": "view",
      "type": "function"
    },
    {
      "anonymous": false,
      "inputs": [
        {
          "indexed": true,
          "name": "_reporter",
          "type": "address"
        },
        {
          "indexed": false,
          "name": "_name",
          "type": "string"
        },
        {
          "indexed": false,
          "name": "_report_type",
          "type": "string"
        },
        {
          "indexed": false,
          "name": "_desc",
          "type": "string"
        }
      ],
      "name": "createReportEvent",
      "type": "event"
    }
  ],
  "bytecode": "0x6060604052341561000f57600080fd5b6108b78061001e6000396000f300606060405260043610610057576000357c0100000000000000000000000000000000000000000000000000000000900463ffffffff16806369ba1a751461005c578063893fbece1461007f578063e4085d6714610162575b600080fd5b341561006757600080fd5b61007d6004808035906020019091905050610302565b005b341561008a57600080fd5b610160600480803590602001908201803590602001908080601f0160208091040260200160405190810160405280939291908181526020018383808284378201915050505050509190803590602001908201803590602001908080601f0160208091040260200160405190810160405280939291908181526020018383808284378201915050505050509190803590602001908201803590602001908080601f0160208091040260200160405190810160405280939291908181526020018383808284378201915050505050509190505061030c565b005b341561016d57600080fd5b6101756105a6565b604051808673ffffffffffffffffffffffffffffffffffffffff1673ffffffffffffffffffffffffffffffffffffffff168152602001806020018060200180602001858152602001848103845288818151815260200191508051906020019080838360005b838110156101f55780820151818401526020810190506101da565b50505050905090810190601f1680156102225780820380516001836020036101000a031916815260200191505b50848103835287818151815260200191508051906020019080838360005b8381101561025b578082015181840152602081019050610240565b50505050905090810190601f1680156102885780820380516001836020036101000a031916815260200191505b50848103825286818151815260200191508051906020019080838360005b838110156102c15780820151818401526020810190506102a6565b50505050905090810190601f1680156102ee5780820380516001836020036101000a031916815260200191505b509850505050505050505060405180910390f35b8060048190555050565b336000806101000a81548173ffffffffffffffffffffffffffffffffffffffff021916908373ffffffffffffffffffffffffffffffffffffffff16021790555082600190805190602001906103629291906107d2565b5081600290805190602001906103799291906107d2565b5080600390805190602001906103909291906107d2565b5060016004819055506000809054906101000a900473ffffffffffffffffffffffffffffffffffffffff1673ffffffffffffffffffffffffffffffffffffffff167f36e8452b5b1e677577e49e4d6864494d0bed23f134aab184e1e035a16f2db5d3600160026003604051808060200180602001806020018481038452878181546001816001161561010002031660029004815260200191508054600181600116156101000203166002900480156104895780601f1061045e57610100808354040283529160200191610489565b820191906000526020600020905b81548152906001019060200180831161046c57829003601f168201915b505084810383528681815460018160011615610100020316600290048152602001915080546001816001161561010002031660029004801561050c5780601f106104e15761010080835404028352916020019161050c565b820191906000526020600020905b8154815290600101906020018083116104ef57829003601f168201915b505084810382528581815460018160011615610100020316600290048152602001915080546001816001161561010002031660029004801561058f5780601f106105645761010080835404028352916020019161058f565b820191906000526020600020905b81548152906001019060200180831161057257829003601f168201915b5050965050505050505060405180910390a2505050565b60006105b0610852565b6105b8610852565b6105c0610852565b60008060009054906101000a900473ffffffffffffffffffffffffffffffffffffffff16600160026003600454838054600181600116156101000203166002900480601f0160208091040260200160405190810160405280929190818152602001828054600181600116156101000203166002900480156106825780601f1061065757610100808354040283529160200191610682565b820191906000526020600020905b81548152906001019060200180831161066557829003601f168201915b50505050509350828054600181600116156101000203166002900480601f01602080910402602001604051908101604052809291908181526020018280546001816001161561010002031660029004801561071e5780601f106106f35761010080835404028352916020019161071e565b820191906000526020600020905b81548152906001019060200180831161070157829003601f168201915b50505050509250818054600181600116156101000203166002900480601f0160208091040260200160405190810160405280929190818152602001828054600181600116156101000203166002900480156107ba5780601f1061078f576101008083540402835291602001916107ba565b820191906000526020600020905b81548152906001019060200180831161079d57829003601f168201915b50505050509150945094509450945094509091929394565b828054600181600116156101000203166002900490600052602060002090601f016020900481019282601f1061081357805160ff1916838001178555610841565b82800160010185558215610841579182015b82811115610840578251825591602001919060010190610825565b5b50905061084e9190610866565b5090565b602060405190810160405280600081525090565b61088891905b8082111561088457600081600090555060010161086c565b5090565b905600a165627a7a72305820222a6d1a6225bcbccda6f1ea3911d34bf5bc9dd78933310f6c06a843ec7e70940029",
  "source": "pragma solidity ^0.4.11;\r\n\r\n\r\ncontract DIR_contract{\r\n\r\n       address reporter;\r\n       string name;\r\n       string report_type;\r\n       string desc;\r\n       uint report_status;\r\n\r\n       event createReportEvent(address indexed _reporter,string _name, string _report_type, string _desc);\r\n\r\n       function createReport(string _name, string _report_type, string _desc) public {\r\n           reporter = msg.sender;\r\n           name = _name;\r\n           report_type = _report_type;\r\n           desc = _desc;\r\n           report_status = 1;\r\n           createReportEvent(reporter,name,report_type,desc);\r\n       }\r\n\r\n       function getReport() public constant returns(\r\n           address _reporter,string _name, string _report_type, string _desc, uint _report_status){\r\n           return(reporter,name,report_type,desc,report_status);\r\n       }\r\n\r\n       function setStatus(uint _report_status) public{\r\n           report_status = _report_status;\r\n       }\r\n\r\n\r\n}",
  "sourcePath": "G:\\toshblocks\\a\\contracts\\DIR_contract.sol",
  "compiler": {
    "name": "solc",
    "version": "0.4.18+commit.9cf6e910.Emscripten.clang"
  },
  "schemaVersion": "1.0.1",
  "updatedAt": "2017-12-21T10:28:18.391Z"
}